{
  "_format": "hh-sol-artifact-1",
  "contractName": "CoinFundr",
  "sourceName": "contracts/CoinFundr.sol",
  "abi": [
    {
      "inputs": [],
      "stateMutability": "nonpayable",
      "type": "constructor"
    },
    {
      "anonymous": false,
      "inputs": [
        {
          "indexed": true,
          "internalType": "uint256",
          "name": "proposalId",
          "type": "uint256"
        },
        {
          "indexed": false,
          "internalType": "address",
          "name": "contributor",
          "type": "address"
        },
        {
          "indexed": false,
          "internalType": "uint256",
          "name": "amount",
          "type": "uint256"
        }
      ],
      "name": "ContributionMade",
      "type": "event"
    },
    {
      "anonymous": false,
      "inputs": [
        {
          "indexed": true,
          "internalType": "uint256",
          "name": "proposalId",
          "type": "uint256"
        },
        {
          "indexed": false,
          "internalType": "address",
          "name": "contributor",
          "type": "address"
        },
        {
          "indexed": false,
          "internalType": "uint256",
          "name": "amount",
          "type": "uint256"
        }
      ],
      "name": "FundsRefundedToContributor",
      "type": "event"
    },
    {
      "anonymous": false,
      "inputs": [
        {
          "indexed": true,
          "internalType": "uint256",
          "name": "proposalId",
          "type": "uint256"
        },
        {
          "indexed": false,
          "internalType": "address",
          "name": "host",
          "type": "address"
        },
        {
          "indexed": false,
          "internalType": "uint256",
          "name": "amount",
          "type": "uint256"
        }
      ],
      "name": "FundsTransferredToHost",
      "type": "event"
    },
    {
      "anonymous": false,
      "inputs": [
        {
          "indexed": true,
          "internalType": "uint256",
          "name": "id",
          "type": "uint256"
        },
        {
          "indexed": false,
          "internalType": "string",
          "name": "title",
          "type": "string"
        },
        {
          "indexed": false,
          "internalType": "uint256",
          "name": "targetFunding",
          "type": "uint256"
        },
        {
          "indexed": false,
          "internalType": "uint256",
          "name": "endTimeStamp",
          "type": "uint256"
        }
      ],
      "name": "ProposalCreated",
      "type": "event"
    },
    {
      "inputs": [],
      "name": "contractBalance",
      "outputs": [
        {
          "internalType": "uint256",
          "name": "",
          "type": "uint256"
        }
      ],
      "stateMutability": "view",
      "type": "function"
    },
    {
      "inputs": [],
      "name": "contractOwner",
      "outputs": [
        {
          "internalType": "address",
          "name": "",
          "type": "address"
        }
      ],
      "stateMutability": "view",
      "type": "function"
    },
    {
      "inputs": [
        {
          "internalType": "uint256",
          "name": "proposalId",
          "type": "uint256"
        }
      ],
      "name": "contribute",
      "outputs": [],
      "stateMutability": "payable",
      "type": "function"
    },
    {
      "inputs": [
        {
          "internalType": "uint256",
          "name": "",
          "type": "uint256"
        },
        {
          "internalType": "address",
          "name": "",
          "type": "address"
        }
      ],
      "name": "contributions",
      "outputs": [
        {
          "internalType": "uint256",
          "name": "",
          "type": "uint256"
        }
      ],
      "stateMutability": "view",
      "type": "function"
    },
    {
      "inputs": [
        {
          "internalType": "uint256",
          "name": "",
          "type": "uint256"
        },
        {
          "internalType": "uint256",
          "name": "",
          "type": "uint256"
        }
      ],
      "name": "contributors",
      "outputs": [
        {
          "internalType": "address",
          "name": "",
          "type": "address"
        }
      ],
      "stateMutability": "view",
      "type": "function"
    },
    {
      "inputs": [
        {
          "internalType": "string",
          "name": "title",
          "type": "string"
        },
        {
          "internalType": "string",
          "name": "description",
          "type": "string"
        },
        {
          "internalType": "uint256",
          "name": "targetFunding",
          "type": "uint256"
        },
        {
          "internalType": "uint256",
          "name": "endTimeStamp",
          "type": "uint256"
        }
      ],
      "name": "createProposal",
      "outputs": [],
      "stateMutability": "nonpayable",
      "type": "function"
    },
    {
      "inputs": [],
      "name": "proposalCount",
      "outputs": [
        {
          "internalType": "uint256",
          "name": "",
          "type": "uint256"
        }
      ],
      "stateMutability": "view",
      "type": "function"
    },
    {
      "inputs": [
        {
          "internalType": "uint256",
          "name": "",
          "type": "uint256"
        }
      ],
      "name": "proposals",
      "outputs": [
        {
          "internalType": "uint256",
          "name": "id",
          "type": "uint256"
        },
        {
          "internalType": "address payable",
          "name": "host",
          "type": "address"
        },
        {
          "internalType": "string",
          "name": "title",
          "type": "string"
        },
        {
          "internalType": "string",
          "name": "description",
          "type": "string"
        },
        {
          "internalType": "uint256",
          "name": "targetFunding",
          "type": "uint256"
        },
        {
          "internalType": "uint256",
          "name": "currentFunding",
          "type": "uint256"
        },
        {
          "internalType": "uint256",
          "name": "endTimeStamp",
          "type": "uint256"
        },
        {
          "internalType": "uint256",
          "name": "contributorCount",
          "type": "uint256"
        }
      ],
      "stateMutability": "view",
      "type": "function"
    },
    {
      "inputs": [
        {
          "internalType": "uint256",
          "name": "proposalId",
          "type": "uint256"
        }
      ],
      "name": "refundFundsToContributor",
      "outputs": [],
      "stateMutability": "nonpayable",
      "type": "function"
    },
    {
      "inputs": [
        {
          "internalType": "uint256",
          "name": "proposalId",
          "type": "uint256"
        }
      ],
      "name": "transferFundsToHost",
      "outputs": [],
      "stateMutability": "nonpayable",
      "type": "function"
    }
  ],
  "bytecode": "0x608060405234801561001057600080fd5b506000808190555033600160006101000a81548173ffffffffffffffffffffffffffffffffffffffff021916908373ffffffffffffffffffffffffffffffffffffffff160217905550611a83806100686000396000f3fe6080604052600436106100915760003560e01c8063b40a295511610059578063b40a2955146101a8578063c1cbbca7146101d1578063cb88697e146101ed578063ce606ee014610216578063da35c6641461024157610091565b8063013cf08b146100965780633d891f59146100da57806354346b66146101175780636b5e1766146101545780638b7afe2e1461017d575b600080fd5b3480156100a257600080fd5b506100bd60048036038101906100b89190610cf8565b61026c565b6040516100d1989796959493929190610e05565b60405180910390f35b3480156100e657600080fd5b5061010160048036038101906100fc9190610ecf565b6103f4565b60405161010e9190610f0f565b60405180910390f35b34801561012357600080fd5b5061013e60048036038101906101399190610f2a565b610419565b60405161014b9190610f79565b60405180910390f35b34801561016057600080fd5b5061017b600480360381019061017691906110c9565b61045b565b005b34801561018957600080fd5b50610192610592565b60405161019f9190610f0f565b60405180910390f35b3480156101b457600080fd5b506101cf60048036038101906101ca9190610cf8565b610598565b005b6101eb60048036038101906101e69190610cf8565b6107d8565b005b3480156101f957600080fd5b50610214600480360381019061020f9190610cf8565b610a39565b005b34801561022257600080fd5b5061022b610c82565b6040516102389190610f79565b60405180910390f35b34801561024d57600080fd5b50610256610ca8565b6040516102639190610f0f565b60405180910390f35b6002818154811061027c57600080fd5b90600052602060002090600802016000915090508060000154908060010160009054906101000a900473ffffffffffffffffffffffffffffffffffffffff16908060020180546102cb90611197565b80601f01602080910402602001604051908101604052809291908181526020018280546102f790611197565b80156103445780601f1061031957610100808354040283529160200191610344565b820191906000526020600020905b81548152906001019060200180831161032757829003601f168201915b50505050509080600301805461035990611197565b80601f016020809104026020016040519081016040528092919081815260200182805461038590611197565b80156103d25780601f106103a7576101008083540402835291602001916103d2565b820191906000526020600020905b8154815290600101906020018083116103b557829003601f168201915b5050505050908060040154908060050154908060060154908060070154905088565b6003602052816000526040600020602052806000526040600020600091509150505481565b60046020528160005260406000206020528060005260406000206000915091509054906101000a900473ffffffffffffffffffffffffffffffffffffffff1681565b6005600081548092919061046e906111f7565b9190505550600060026005548154811061048b5761048a61123f565b5b90600052602060002090600802019050338160010160006101000a81548173ffffffffffffffffffffffffffffffffffffffff021916908373ffffffffffffffffffffffffffffffffffffffff1602179055506005548160000181905550848160020190816104fa919061141a565b508381600301908161050c919061141a565b50670de0b6b3a76400008361052191906114ec565b8160040181905550603c8261053691906114ec565b42610541919061152e565b81600601819055506005547f5d072faeaf3fe9518eca824577834e1efc3ff209025796dd8819b72706cd0bd58685846006015460405161058393929190611562565b60405180910390a25050505050565b60005481565b600160009054906101000a900473ffffffffffffffffffffffffffffffffffffffff1673ffffffffffffffffffffffffffffffffffffffff163373ffffffffffffffffffffffffffffffffffffffff1614610628576040517f08c379a000000000000000000000000000000000000000000000000000000000815260040161061f90611612565b60405180910390fd5b60006002828154811061063e5761063d61123f565b5b906000526020600020906008020190508060060154421015610695576040517f08c379a000000000000000000000000000000000000000000000000000000000815260040161068c9061167e565b60405180910390fd5b80600401548160050154146106df576040517f08c379a00000000000000000000000000000000000000000000000000000000081526004016106d6906116ea565b60405180910390fd5b600081600501549050600082600501819055508160010160009054906101000a900473ffffffffffffffffffffffffffffffffffffffff1673ffffffffffffffffffffffffffffffffffffffff166108fc829081150290604051600060405180830381858888f1935050505015801561075c573d6000803e3d6000fd5b508060008082825461076e919061170a565b92505081905550827f693559c255422dc2c579561eb16da3629cc4e51ba276d0bbdd87632034ffbedf8360010160009054906101000a900473ffffffffffffffffffffffffffffffffffffffff16836040516107cb929190611793565b60405180910390a2505050565b6000600282815481106107ee576107ed61123f565b5b90600052602060002090600802019050670de0b6b3a7640000341015610849576040517f08c379a00000000000000000000000000000000000000000000000000000000081526004016108409061182e565b60405180910390fd5b60008211801561085b57506005548211155b61089a576040517f08c379a00000000000000000000000000000000000000000000000000000000081526004016108919061189a565b60405180910390fd5b806006015442106108e0576040517f08c379a00000000000000000000000000000000000000000000000000000000081526004016108d790611906565b60405180910390fd5b8060070160008154809291906108f5906111f7565b91905055503481600501600082825461090e919061152e565b9250508190555034600080828254610926919061152e565b92505081905550346003600084815260200190815260200160002060003373ffffffffffffffffffffffffffffffffffffffff1673ffffffffffffffffffffffffffffffffffffffff168152602001908152602001600020600082825461098d919061152e565b92505081905550336004600084815260200190815260200160002060008360070154815260200190815260200160002060006101000a81548173ffffffffffffffffffffffffffffffffffffffff021916908373ffffffffffffffffffffffffffffffffffffffff160217905550817f0a4a91237423e0a1766a761c7cb029311d8b95d6b1b81db1b949a70c98b4e08e3334604051610a2d929190611926565b60405180910390a25050565b600060028281548110610a4f57610a4e61123f565b5b9060005260206000209060080201905060003390508160060154421015610aab576040517f08c379a0000000000000000000000000000000000000000000000000000000008152600401610aa29061167e565b60405180910390fd5b8160040154826005015410610af5576040517f08c379a0000000000000000000000000000000000000000000000000000000008152600401610aec9061199b565b60405180910390fd5b60006003600085815260200190815260200160002060003373ffffffffffffffffffffffffffffffffffffffff1673ffffffffffffffffffffffffffffffffffffffff16815260200190815260200160002054905060008111610b8d576040517f08c379a0000000000000000000000000000000000000000000000000000000008152600401610b8490611a2d565b60405180910390fd5b60006003600086815260200190815260200160002060003373ffffffffffffffffffffffffffffffffffffffff1673ffffffffffffffffffffffffffffffffffffffff168152602001908152602001600020819055508173ffffffffffffffffffffffffffffffffffffffff166108fc829081150290604051600060405180830381858888f19350505050158015610c29573d6000803e3d6000fd5b5080600080828254610c3b919061170a565b92505081905550837f31cab42cfbb47034f3e82d5dbd87ed1c0e9c363c8cbd47535ccb09246bf5dbc33383604051610c74929190611926565b60405180910390a250505050565b600160009054906101000a900473ffffffffffffffffffffffffffffffffffffffff1681565b60055481565b6000604051905090565b600080fd5b600080fd5b6000819050919050565b610cd581610cc2565b8114610ce057600080fd5b50565b600081359050610cf281610ccc565b92915050565b600060208284031215610d0e57610d0d610cb8565b5b6000610d1c84828501610ce3565b91505092915050565b610d2e81610cc2565b82525050565b600073ffffffffffffffffffffffffffffffffffffffff82169050919050565b6000610d5f82610d34565b9050919050565b610d6f81610d54565b82525050565b600081519050919050565b600082825260208201905092915050565b60005b83811015610daf578082015181840152602081019050610d94565b60008484015250505050565b6000601f19601f8301169050919050565b6000610dd782610d75565b610de18185610d80565b9350610df1818560208601610d91565b610dfa81610dbb565b840191505092915050565b600061010082019050610e1b600083018b610d25565b610e28602083018a610d66565b8181036040830152610e3a8189610dcc565b90508181036060830152610e4e8188610dcc565b9050610e5d6080830187610d25565b610e6a60a0830186610d25565b610e7760c0830185610d25565b610e8460e0830184610d25565b9998505050505050505050565b6000610e9c82610d34565b9050919050565b610eac81610e91565b8114610eb757600080fd5b50565b600081359050610ec981610ea3565b92915050565b60008060408385031215610ee657610ee5610cb8565b5b6000610ef485828601610ce3565b9250506020610f0585828601610eba565b9150509250929050565b6000602082019050610f246000830184610d25565b92915050565b60008060408385031215610f4157610f40610cb8565b5b6000610f4f85828601610ce3565b9250506020610f6085828601610ce3565b9150509250929050565b610f7381610e91565b82525050565b6000602082019050610f8e6000830184610f6a565b92915050565b600080fd5b600080fd5b7f4e487b7100000000000000000000000000000000000000000000000000000000600052604160045260246000fd5b610fd682610dbb565b810181811067ffffffffffffffff82111715610ff557610ff4610f9e565b5b80604052505050565b6000611008610cae565b90506110148282610fcd565b919050565b600067ffffffffffffffff82111561103457611033610f9e565b5b61103d82610dbb565b9050602081019050919050565b82818337600083830152505050565b600061106c61106784611019565b610ffe565b90508281526020810184848401111561108857611087610f99565b5b61109384828561104a565b509392505050565b600082601f8301126110b0576110af610f94565b5b81356110c0848260208601611059565b91505092915050565b600080600080608085870312156110e3576110e2610cb8565b5b600085013567ffffffffffffffff81111561110157611100610cbd565b5b61110d8782880161109b565b945050602085013567ffffffffffffffff81111561112e5761112d610cbd565b5b61113a8782880161109b565b935050604061114b87828801610ce3565b925050606061115c87828801610ce3565b91505092959194509250565b7f4e487b7100000000000000000000000000000000000000000000000000000000600052602260045260246000fd5b600060028204905060018216806111af57607f821691505b6020821081036111c2576111c1611168565b5b50919050565b7f4e487b7100000000000000000000000000000000000000000000000000000000600052601160045260246000fd5b600061120282610cc2565b91507fffffffffffffffffffffffffffffffffffffffffffffffffffffffffffffffff8203611234576112336111c8565b5b600182019050919050565b7f4e487b7100000000000000000000000000000000000000000000000000000000600052603260045260246000fd5b60008190508160005260206000209050919050565b60006020601f8301049050919050565b600082821b905092915050565b6000600883026112d07fffffffffffffffffffffffffffffffffffffffffffffffffffffffffffffffff82611293565b6112da8683611293565b95508019841693508086168417925050509392505050565b6000819050919050565b600061131761131261130d84610cc2565b6112f2565b610cc2565b9050919050565b6000819050919050565b611331836112fc565b61134561133d8261131e565b8484546112a0565b825550505050565b600090565b61135a61134d565b611365818484611328565b505050565b5b818110156113895761137e600082611352565b60018101905061136b565b5050565b601f8211156113ce5761139f8161126e565b6113a884611283565b810160208510156113b7578190505b6113cb6113c385611283565b83018261136a565b50505b505050565b600082821c905092915050565b60006113f1600019846008026113d3565b1980831691505092915050565b600061140a83836113e0565b9150826002028217905092915050565b61142382610d75565b67ffffffffffffffff81111561143c5761143b610f9e565b5b6114468254611197565b61145182828561138d565b600060209050601f8311600181146114845760008415611472578287015190505b61147c85826113fe565b8655506114e4565b601f1984166114928661126e565b60005b828110156114ba57848901518255600182019150602085019450602081019050611495565b868310156114d757848901516114d3601f8916826113e0565b8355505b6001600288020188555050505b505050505050565b60006114f782610cc2565b915061150283610cc2565b925082820261151081610cc2565b91508282048414831517611527576115266111c8565b5b5092915050565b600061153982610cc2565b915061154483610cc2565b925082820190508082111561155c5761155b6111c8565b5b92915050565b6000606082019050818103600083015261157c8186610dcc565b905061158b6020830185610d25565b6115986040830184610d25565b949350505050565b7f4f6e6c792074686520636f6e7472616374206f776e65722063616e2063616c6c60008201527f20746869732066756e6374696f6e000000000000000000000000000000000000602082015250565b60006115fc602e83610d80565b9150611607826115a0565b604082019050919050565b6000602082019050818103600083015261162b816115ef565b9050919050565b7f4576656e74206861736e277420656e6465642079657400000000000000000000600082015250565b6000611668601683610d80565b915061167382611632565b602082019050919050565b600060208201905081810360008301526116978161165b565b9050919050565b7f50726f6a656374206973206e6f742066756c6c792066756e6465640000000000600082015250565b60006116d4601b83610d80565b91506116df8261169e565b602082019050919050565b60006020820190508181036000830152611703816116c7565b9050919050565b600061171582610cc2565b915061172083610cc2565b9250828203905081811115611738576117376111c8565b5b92915050565b600061175961175461174f84610d34565b6112f2565b610d34565b9050919050565b600061176b8261173e565b9050919050565b600061177d82611760565b9050919050565b61178d81611772565b82525050565b60006040820190506117a86000830185611784565b6117b56020830184610d25565b9392505050565b7f416d6f756e74206d75737420626520657175616c20746f206f72206d6f72652060008201527f7468616e20312045544800000000000000000000000000000000000000000000602082015250565b6000611818602a83610d80565b9150611823826117bc565b604082019050919050565b600060208201905081810360008301526118478161180b565b9050919050565b7f496e76616c69642070726f706f73616c20494400000000000000000000000000600082015250565b6000611884601383610d80565b915061188f8261184e565b602082019050919050565b600060208201905081810360008301526118b381611877565b9050919050565b7f546865206576656e742068617320656e64656400000000000000000000000000600082015250565b60006118f0601383610d80565b91506118fb826118ba565b602082019050919050565b6000602082019050818103600083015261191f816118e3565b9050919050565b600060408201905061193b6000830185610f6a565b6119486020830184610d25565b9392505050565b7f50726f6a6563742069732066756c6c792066756e646564000000000000000000600082015250565b6000611985601783610d80565b91506119908261194f565b602082019050919050565b600060208201905081810360008301526119b481611978565b9050919050565b7f596f752068617665206e6f20636f6e747269627574696f6e7320696e2074686960008201527f732070726f706f73616c2e000000000000000000000000000000000000000000602082015250565b6000611a17602b83610d80565b9150611a22826119bb565b604082019050919050565b60006020820190508181036000830152611a4681611a0a565b905091905056fea26469706673582212203ac10cfefc4df159fd7e57440cd2e9d0f493f80a3699647f0e92de5e89d85d8764736f6c63430008120033",
  "linkReferences": {},
  "deployedLinkReferences": {}
}